:020000040800F2
:100000000050002021060008710600087106000853
:100010007106000871060008710600080000000063
:100020000000000000000000000000007106000851
:100030007106000800000000710600087106000843
:1000400071060008710600087106000871060008B4
:1000500071060008710600087106000871060008A4
:100060007106000871060008710600087106000894
:100070007106000871060008710600087106000884
:100080007106000871060008710600087106000874
:100090007106000871060008710600087106000864
:1000A0007106000871060008710600087106000854
:1000B0007106000871060008710600087106000844
:1000C0007106000871060008710600087106000834
:1000D0007106000871060008710600087106000824
:1000E0000106000871060008000000007106000803
:1000F0007106000871060008710600087106000804
:1001000071060008710600087106000871060008F3
:1001100071060008710600087106000871060008E3
:1001200071060008710600087106000871060008D3
:1001300010B5054C237833B9044B13B10448AFF321
:1001400000800123237010BD00000020000000008B
:10015000CC06000808B5034B1BB103490348AFF3B5
:10016000008008BD0000000004000020CC0600084C
:1001700080B485B000AF78607B681B68FB607B68EB
:100180001B79072B1CD8FB681A687B681B799B00BE
:100190000F2101FA03F3DB431A40FB681A60FB6886
:1001A0001B687A68927992007968497911437A6874
:1001B0001279920001FA02F21A43FB681A601DE0FC
:1001C000FB685A687B681B79083B9B000F2101FA8A
:1001D00003F3DB431A40FB685A60FB685B687A688C
:1001E000927992007968497911437A681279083ACC
:1001F000920001FA02F21A43FB685A6000BF1437FA
:10020000BD4680BC7047000080B485B000AF786008
:100210007B685B79042B17D1514BDB687A681279C4
:10022000114601228A4011464D4A0B43D3604C4B84
:100230009B687A681279114601228A40D24311469E
:10024000474A0B40936035E07B685B79052B17D1FB
:10025000434BDB687A681279114601228A40D24307
:1002600011463F4A0B40D3603D4B9B687A68127938
:10027000114601228A401146394A0B43936019E026
:100280007B685B79062B15D1354BDB687A68127970
:10029000114601228A401146314A0B43D360304B4C
:1002A0009B687A681279114601228A4011462C4ACD
:1002B0000B4393607B681B799B08FB737B681B79FE
:1002C00003F00303BB737B681B68264A934206D185
:1002D000254AFB7B0233002142F8231029E07B688A
:1002E0001B68224A93420AD1BB7B9B00012202FA7F
:1002F00003F11D4AFB7B023342F8231019E07B68AF
:100300001B681B4A93420AD1BB7B9B00022202FA64
:1003100003F1154AFB7B023342F8231009E0BB7B53
:100320009B00032202FA03F10F4AFB7B023342F8DF
:100330002310104B9B690F4A43F001039361084B54
:100340001B687A681279114601228A401146044AD4
:100350000B43136000BF1437BD4680BC704700BF1D
:10036000000401400008014000000140000C014071
:10037000001001400010024080B483B000AF7860EC
:100380000B46FB701346BB70BB78012B09D17B6811
:10039000DB68FA78012101FA02F21A437B68DA601D
:1003A00009E07B68DB68FA78012101FA02F2D243A6
:1003B0001A407B68DA6000BF0C37BD4680BC7047CE
:1003C00080B483B000AF78600B46FB707B68DB685D
:1003D000FA78012101FA02F25A407B68DA6000BF24
:1003E0000C37BD4680BC704780B483B000AF034675
:1003F0000A46FB711346BB71BB79012B20D1FB79F7
:100400001F2B0AD8214B1B68FA79012101FA02F24D
:1004100011461E4A0B43136032E0FB791F2B2FD984
:10042000FB793F2B2CD81A4B1B68FA7902F01F027C
:10043000012101FA02F21146154A0B4313601FE035
:10044000FB791F2B0AD8134B1B68FA79012101FA9B
:1004500002F211460F4A0B43136011E0FB791F2B88
:100460000ED9FB793F2B0BD80B4B1B68FA7902F0A6
:100470001F02012101FA02F21146074A0B431360E1
:1004800000BF0C37BD4680BC704700BF00E100E0F4
:1004900004E100E080E100E084E100E080B485B0A8
:1004A00000AF03463960FB71FB799B08FB73FB7956
:1004B00003F00303BB73BB7BDB00DBB204337B7352
:1004C000FB7B9B0003F1604303F5644319687B7B6E
:1004D0003A689A40FB7B9B0003F1604303F5644359
:1004E0000A431A6000BF1437BD4680BC7047000045
:1004F00080B483B000AF0346FB710C4B5B69FA79A3
:10050000012101FA02F21340002B09D0074B5B696D
:10051000FA79012101FA02F21146044A0B435361B0
:1005200000BF0C37BD4680BC704700BF00040140CF
:1005300080B483B000AF00237B6002E07B680133AE
:100540007B607B68044A9342F8D900BF00BF0C3738
:10055000BD4680BC704700BF1FA1070080B584B0B6
:1005600000AF234B9B69224A43F0080393613B464B
:1005700008220021184600F07CF807F10803082241
:100580000021184600F075F81A4BBB600A233B7334
:1005900004237B730223BB73154B9B69144A43F0FE
:1005A0000403936107F108031846FFF7E1FD07F123
:1005B00008031846FFF728FE0F4B3B6000233B71F2
:1005C00002237B710023BB713B461846FFF7D0FD29
:1005D000012200210948FFF7CFFE0F212820FFF755
:1005E0005DFF01212820FFF7FFFE00BFFDE700BFF0
:1005F00000100240000C01400010014000080140C2
:1006000080B500AFFFF794FF0A20FFF771FF0021CC
:100610000248FFF7D5FE00BF80BD00BF00080140C3
:100620000D488546AFF300800C480D490D4A002364
:1006300002E0D458C4500433C4188C42F9D30A4A97
:100640000A4C002301E013600432A242FBD300F005
:1006500019F8FFF783FFFEE700500020000000209C
:1006600000000020EC060008000000201C00002014
:10067000FEE703460244934200D1704703F8011B92
:10068000F9E7000070B500260C4D0D4C641BA4105A
:10069000A64209D100F01AF800260A4D0A4C641B44
:1006A000A410A64205D170BD55F8043B9847013609
:1006B000EEE755F8043B98470136F2E7E4060008F8
:1006C000E4060008E4060008E8060008F8B500BFE4
:1006D000F8BC08BC9E467047F8B500BFF8BC08BC23
:0406E0009E4670477B
:0406E40055010008B4
:0406E80031010008D4
:0400000508000621C8
:00000001FF
